{
  "contractName": "mini",
  "abi": [
    {
      "inputs": [
        {
          "internalType": "uint256",
          "name": "",
          "type": "uint256"
        }
      ],
      "name": "borower_list",
      "outputs": [
        {
          "internalType": "address",
          "name": "",
          "type": "address"
        }
      ],
      "stateMutability": "view",
      "type": "function"
    },
    {
      "inputs": [
        {
          "internalType": "uint256",
          "name": "",
          "type": "uint256"
        }
      ],
      "name": "lender_list",
      "outputs": [
        {
          "internalType": "address",
          "name": "",
          "type": "address"
        }
      ],
      "stateMutability": "view",
      "type": "function"
    },
    {
      "inputs": [
        {
          "internalType": "string",
          "name": "name",
          "type": "string"
        },
        {
          "internalType": "uint256",
          "name": "pos",
          "type": "uint256"
        },
        {
          "internalType": "uint256",
          "name": "aadhar",
          "type": "uint256"
        }
      ],
      "name": "user",
      "outputs": [
        {
          "internalType": "string",
          "name": "",
          "type": "string"
        }
      ],
      "stateMutability": "nonpayable",
      "type": "function"
    },
    {
      "inputs": [
        {
          "internalType": "uint256",
          "name": "amountt",
          "type": "uint256"
        }
      ],
      "name": "sendmoney",
      "outputs": [
        {
          "internalType": "uint256",
          "name": "",
          "type": "uint256"
        }
      ],
      "stateMutability": "payable",
      "type": "function"
    },
    {
      "inputs": [],
      "name": "getBalance",
      "outputs": [
        {
          "internalType": "uint256",
          "name": "",
          "type": "uint256"
        },
        {
          "internalType": "uint256",
          "name": "",
          "type": "uint256"
        }
      ],
      "stateMutability": "view",
      "type": "function"
    },
    {
      "inputs": [
        {
          "internalType": "address",
          "name": "addr",
          "type": "address"
        }
      ],
      "name": "get_borrower",
      "outputs": [
        {
          "internalType": "string",
          "name": "",
          "type": "string"
        },
        {
          "internalType": "uint256",
          "name": "",
          "type": "uint256"
        }
      ],
      "stateMutability": "view",
      "type": "function"
    },
    {
      "inputs": [
        {
          "internalType": "address",
          "name": "addr",
          "type": "address"
        }
      ],
      "name": "get_lender",
      "outputs": [
        {
          "internalType": "string",
          "name": "",
          "type": "string"
        },
        {
          "internalType": "uint256",
          "name": "",
          "type": "uint256"
        }
      ],
      "stateMutability": "view",
      "type": "function"
    },
    {
      "inputs": [],
      "name": "get_borrower_list",
      "outputs": [
        {
          "internalType": "address[]",
          "name": "",
          "type": "address[]"
        }
      ],
      "stateMutability": "view",
      "type": "function"
    },
    {
      "inputs": [],
      "name": "get_lender_list",
      "outputs": [
        {
          "internalType": "address[]",
          "name": "",
          "type": "address[]"
        }
      ],
      "stateMutability": "view",
      "type": "function"
    }
  ],
  "bytecode": "0x608060405264174876e800600655600160075534801561001e57600080fd5b5061112b8061002e6000396000f3fe6080604052600436106100865760003560e01c8063acdda4f511610059578063acdda4f51461015d578063b1f07cfd1461018d578063cf3a5a1c146101ca578063d038487114610208578063d08e72791461024557610086565b806312065fe01461008b5780633f8ee26b146100b75780634e94b75d146100e25780635bc4efcf14610120575b600080fd5b34801561009757600080fd5b506100a0610270565b6040516100ae9291906108c2565b60405180910390f35b3480156100c357600080fd5b506100cc61027f565b6040516100d991906109db565b60405180910390f35b3480156100ee57600080fd5b5061010960048036038101906101049190610a3d565b61030d565b604051610117929190610afa565b60405180910390f35b34801561012c57600080fd5b5061014760048036038101906101429190610c8b565b61042b565b6040516101549190610cfa565b60405180910390f35b61017760048036038101906101729190610d1c565b61063c565b6040516101849190610d49565b60405180910390f35b34801561019957600080fd5b506101b460048036038101906101af9190610d1c565b610665565b6040516101c19190610d73565b60405180910390f35b3480156101d657600080fd5b506101f160048036038101906101ec9190610a3d565b6106a4565b6040516101ff929190610afa565b60405180910390f35b34801561021457600080fd5b5061022f600480360381019061022a9190610d1c565b6107c2565b60405161023c9190610d73565b60405180910390f35b34801561025157600080fd5b5061025a610801565b60405161026791906109db565b60405180910390f35b60008060075442915091509091565b6060600280548060200260200160405190810160405280929190818152602001828054801561030357602002820191906000526020600020905b8160009054906101000a900473ffffffffffffffffffffffffffffffffffffffff1673ffffffffffffffffffffffffffffffffffffffff16815260200190600101908083116102b9575b5050505050905090565b60606000600460008473ffffffffffffffffffffffffffffffffffffffff1673ffffffffffffffffffffffffffffffffffffffff168152602001908152602001600020600001600460008573ffffffffffffffffffffffffffffffffffffffff1673ffffffffffffffffffffffffffffffffffffffff168152602001908152602001600020600101548180546103a290610dbd565b80601f01602080910402602001604051908101604052809291908181526020018280546103ce90610dbd565b801561041b5780601f106103f05761010080835404028352916020019161041b565b820191906000526020600020905b8154815290600101906020018083116103fe57829003601f168201915b5050505050915091509150915091565b60606000339050600084036105255761044261088f565b8581600001819052508381602001818152505080600460003373ffffffffffffffffffffffffffffffffffffffff1673ffffffffffffffffffffffffffffffffffffffff16815260200190815260200160002060008201518160000190816104aa9190610f9a565b50602082015181600101559050506002829080600181540180825580915050600190039060005260206000200160009091909190916101000a81548173ffffffffffffffffffffffffffffffffffffffff021916908373ffffffffffffffffffffffffffffffffffffffff1602179055508592505050610635565b600184036106305784600560008373ffffffffffffffffffffffffffffffffffffffff1673ffffffffffffffffffffffffffffffffffffffff168152602001908152602001600020600001908161057c9190610f9a565b5082600560008373ffffffffffffffffffffffffffffffffffffffff1673ffffffffffffffffffffffffffffffffffffffff168152602001908152602001600020600101819055506003819080600181540180825580915050600190039060005260206000200160009091909190916101000a81548173ffffffffffffffffffffffffffffffffffffffff021916908373ffffffffffffffffffffffffffffffffffffffff16021790555084915050610635565b600080fd5b9392505050565b600060028261064b919061109b565b60078190555060028261065e919061109b565b9050919050565b6002818154811061067557600080fd5b906000526020600020016000915054906101000a900473ffffffffffffffffffffffffffffffffffffffff1681565b60606000600560008473ffffffffffffffffffffffffffffffffffffffff1673ffffffffffffffffffffffffffffffffffffffff168152602001908152602001600020600001600560008573ffffffffffffffffffffffffffffffffffffffff1673ffffffffffffffffffffffffffffffffffffffff1681526020019081526020016000206001015481805461073990610dbd565b80601f016020809104026020016040519081016040528092919081815260200182805461076590610dbd565b80156107b25780601f10610787576101008083540402835291602001916107b2565b820191906000526020600020905b81548152906001019060200180831161079557829003601f168201915b5050505050915091509150915091565b600381815481106107d257600080fd5b906000526020600020016000915054906101000a900473ffffffffffffffffffffffffffffffffffffffff1681565b6060600380548060200260200160405190810160405280929190818152602001828054801561088557602002820191906000526020600020905b8160009054906101000a900473ffffffffffffffffffffffffffffffffffffffff1673ffffffffffffffffffffffffffffffffffffffff168152602001906001019080831161083b575b5050505050905090565b604051806040016040528060608152602001600081525090565b6000819050919050565b6108bc816108a9565b82525050565b60006040820190506108d760008301856108b3565b6108e460208301846108b3565b9392505050565b600081519050919050565b600082825260208201905092915050565b6000819050602082019050919050565b600073ffffffffffffffffffffffffffffffffffffffff82169050919050565b600061094282610917565b9050919050565b61095281610937565b82525050565b60006109648383610949565b60208301905092915050565b6000602082019050919050565b6000610988826108eb565b61099281856108f6565b935061099d83610907565b8060005b838110156109ce5781516109b58882610958565b97506109c083610970565b9250506001810190506109a1565b5085935050505092915050565b600060208201905081810360008301526109f5818461097d565b905092915050565b6000604051905090565b600080fd5b600080fd5b610a1a81610937565b8114610a2557600080fd5b50565b600081359050610a3781610a11565b92915050565b600060208284031215610a5357610a52610a07565b5b6000610a6184828501610a28565b91505092915050565b600081519050919050565b600082825260208201905092915050565b60005b83811015610aa4578082015181840152602081019050610a89565b60008484015250505050565b6000601f19601f8301169050919050565b6000610acc82610a6a565b610ad68185610a75565b9350610ae6818560208601610a86565b610aef81610ab0565b840191505092915050565b60006040820190508181036000830152610b148185610ac1565b9050610b2360208301846108b3565b9392505050565b600080fd5b600080fd5b7f4e487b7100000000000000000000000000000000000000000000000000000000600052604160045260246000fd5b610b6c82610ab0565b810181811067ffffffffffffffff82111715610b8b57610b8a610b34565b5b80604052505050565b6000610b9e6109fd565b9050610baa8282610b63565b919050565b600067ffffffffffffffff821115610bca57610bc9610b34565b5b610bd382610ab0565b9050602081019050919050565b82818337600083830152505050565b6000610c02610bfd84610baf565b610b94565b905082815260208101848484011115610c1e57610c1d610b2f565b5b610c29848285610be0565b509392505050565b600082601f830112610c4657610c45610b2a565b5b8135610c56848260208601610bef565b91505092915050565b610c68816108a9565b8114610c7357600080fd5b50565b600081359050610c8581610c5f565b92915050565b600080600060608486031215610ca457610ca3610a07565b5b600084013567ffffffffffffffff811115610cc257610cc1610a0c565b5b610cce86828701610c31565b9350506020610cdf86828701610c76565b9250506040610cf086828701610c76565b9150509250925092565b60006020820190508181036000830152610d148184610ac1565b905092915050565b600060208284031215610d3257610d31610a07565b5b6000610d4084828501610c76565b91505092915050565b6000602082019050610d5e60008301846108b3565b92915050565b610d6d81610937565b82525050565b6000602082019050610d886000830184610d64565b92915050565b7f4e487b7100000000000000000000000000000000000000000000000000000000600052602260045260246000fd5b60006002820490506001821680610dd557607f821691505b602082108103610de857610de7610d8e565b5b50919050565b60008190508160005260206000209050919050565b60006020601f8301049050919050565b600082821b905092915050565b600060088302610e507fffffffffffffffffffffffffffffffffffffffffffffffffffffffffffffffff82610e13565b610e5a8683610e13565b95508019841693508086168417925050509392505050565b6000819050919050565b6000610e97610e92610e8d846108a9565b610e72565b6108a9565b9050919050565b6000819050919050565b610eb183610e7c565b610ec5610ebd82610e9e565b848454610e20565b825550505050565b600090565b610eda610ecd565b610ee5818484610ea8565b505050565b5b81811015610f0957610efe600082610ed2565b600181019050610eeb565b5050565b601f821115610f4e57610f1f81610dee565b610f2884610e03565b81016020851015610f37578190505b610f4b610f4385610e03565b830182610eea565b50505b505050565b600082821c905092915050565b6000610f7160001984600802610f53565b1980831691505092915050565b6000610f8a8383610f60565b9150826002028217905092915050565b610fa382610a6a565b67ffffffffffffffff811115610fbc57610fbb610b34565b5b610fc68254610dbd565b610fd1828285610f0d565b600060209050601f8311600181146110045760008415610ff2578287015190505b610ffc8582610f7e565b865550611064565b601f19841661101286610dee565b60005b8281101561103a57848901518255600182019150602085019450602081019050611015565b868310156110575784890151611053601f891682610f60565b8355505b6001600288020188555050505b505050505050565b7f4e487b7100000000000000000000000000000000000000000000000000000000600052601160045260246000fd5b60006110a6826108a9565b91506110b1836108a9565b9250817fffffffffffffffffffffffffffffffffffffffffffffffffffffffffffffffff04831182151516156110ea576110e961106c565b5b82820290509291505056fea26469706673582212207543d7ea0fdfdef15203ba2de7caa74642df20b9d6ca075161548ad162edde5b64736f6c63430008100033",
  "immutableReferences": {},
  "source": "// SPDX-License-Identifier: GPL-3.0\n\npragma solidity >=0.8.16;\n\n// import \"@chainlink/contracts/src/v0.8/interfaces/AggregatorV3Interface.sol\";\ncontract mini {\n    uint256 amt;\n    uint256 val;\n\n    // constructor() public {}\n\n    struct borower {\n        string name;\n        // uint email;\n        // address[] lenders;\n        uint256 aadhar;\n        // string password;\n    }\n\n    struct lender {\n        string name;\n        uint256 aadhar;\n        // address[] borrowerlist;\n    }\n    address[] public borower_list;\n    address[] public lender_list;\n    mapping(address => borower) borowerInfo;\n    mapping(address => lender) lenderInfo;\n    // var date=new Date();\n    // uint deposit;\n    // constructor() public {\n    //     amt=0;\n    //     val=1000;\n    // }\n    // mapping(address => uint) borower_addr,lender_addr;\n\n    uint256 PAISA = 10 * 1e10;\n    uint256 aa = 1;\n\n    function user(\n        string memory name,\n        uint256 pos,\n        uint256 aadhar\n    ) public returns (string memory) {\n        address addr = msg.sender;\n        if (pos == 0) {\n            borower memory b;\n            b.name = name;\n            b.aadhar = aadhar;\n            // b.record = _hash;\n            borowerInfo[msg.sender] = b;\n            borower_list.push(addr);\n            return name;\n        } else if (pos == 1) {\n            lenderInfo[addr].name = name;\n            lenderInfo[addr].aadhar = aadhar;\n            lender_list.push(addr);\n            return name;\n        } else {\n            revert();\n        }\n    }\n\n    function sendmoney(uint256 amountt) public payable returns (uint256) {\n        // amt=amountt\n        // amt=amountt;\n        // return amountt;\n        // 0xab594600376ec9fd91f8e885dadf0ce036862de0 matic/usd\n        // require(getConversion(1*1e10) >= 0,\"ERROR NO funds\"); //1*10**18=100000000000000000 wei / 1 ether (set a min limit of 1 ethr)\n        // getConversion(msg.value);\n        // getConversion(msg.value)\n        aa = amountt * 2;\n        return amountt * 2;\n    }\n\n    function getBalance() public view returns (uint256, uint256) {\n        // var time=now;\n        return (aa, block.timestamp);\n    }\n\n    function get_borrower(address addr)\n        public\n        view\n        returns (string memory, uint256)\n    {\n        // if(keccak256(patientInfo[addr].name) == keccak256(\"\"))revert();\n        return (borowerInfo[addr].name, borowerInfo[addr].aadhar);\n    }\n\n    function get_lender(address addr)\n        public\n        view\n        returns (string memory, uint256)\n    {\n        // if(keccak256(doctorInfo[addr].name)==keccak256(\"\"))revert();\n        return (lenderInfo[addr].name, lenderInfo[addr].aadhar);\n    }\n\n    function get_borrower_list() public view returns (address[] memory) {\n        return borower_list;\n    }\n\n    function get_lender_list() public view returns (address[] memory) {\n        return lender_list;\n    }\n\n    // function getprice()public view returns(uint256){\n    //     AggregatorV3Interface interfacee = AggregatorV3Interface(0xAB594600376Ec9fD91F8e885dADF0CE036862dE0);\n    //     (,int256 price,,,) = interfacee.latestRoundData();\n    //     return uint256(price*1e10);\n\n    // }\n\n    // function getConversion(uint256 amount)public view returns(uint256){\n    //     uint256 price=getprice();\n    //     uint256 convert_price=(price*amount)/1e18;\n    //     return convert_price;\n\n    // }\n\n    // function withdraw(){}\n\n    // function getBalance()public view returns(uint){\n    //     return val;\n    // }\n    // // function getAmt() public view returns(uint){\n    //     return amt;\n    // }\n    // function send() public returns(uint deposit){\n    //     val=val-deposit;\n    //     amt=val+deposit;\n    // }\n}\n",
  "sourcePath": "C:\\Users\\praveen\\Desktop\\be_project-master\\p2p_lending\\contracts\\mini.sol",
  "compiler": {
    "name": "solc",
    "version": "0.8.16+commit.07a7930e.Emscripten.clang"
  },
  "schemaVersion": "3.4.10",
  "updatedAt": "2022-10-02T10:15:15.251Z",
  "devdoc": {
    "kind": "dev",
    "methods": {},
    "version": 1
  },
  "userdoc": {
    "kind": "user",
    "methods": {},
    "version": 1
  }
}